:020000040000FA
:100000000C9427070C941B1D0C94F01C0C94C51C1D
:100010000C949A1C0C946F1C0C94441C0C94191C8A
:100020000C94EE1B0C9458070C9458070C9458072A
:100030000C9458070C9458070C9458070C945807C4
:100040000C9458070C9458070C9458070C945807B4
:100050000C9458070C9458070C9458070C94A41B44
:100060000C9458070C9458070C9458070C94580794
:100070000C9458070C9458070C9458070C94580784
:100080000C9458070C9458070C9458070C94580774
:100090000C9458070C9458070C9458070C94461D60
:1000A0000C9458070C9458070C9458070C94580754
:1000B0000C9458070C9458070C9458070C94580744
:1000C0000C9458070C9458070C9458070C94580734
:1000D0000C9458070C9458070C9458070C94580724
:1000E0000C9458070C9448250C94B7070C94690A93
:1000F0000C94CA270C9403100C94E1070C943E1B3B
:100100000C94C7250C945A070C9472160C94C727AC
:100110000C94CF070C942D160C9437160C94C10731
:100120000C944E250C94CD270C94D6250C948A085B
:100130000C94AE070C9457250C94BE270C9494088D
:100140000C9415160C9486080C945E0D0C94CA251C
:100150000C944D1B0C942E110C94A2070C94DB0FE5
:100160000C944A1B0C94BE110C9493080C944F16DB
:100170000C9451250C94A4110C949F150C945425A7
:100180000C94D3070C94C5070C9495080C94FA268C
:100190000C94CD250C94D7070C94D9090C94220A01
:1001A0000C9445160C94D3250C9423160C94B1078B
:1001B0000C9455160C946A1E0C94240B0C94C907CD
:1001C0000C944B250C948E080C94240F0C948F0ED9
:1001D0000C94441B0C94A6070C94AA070C94EB0FE8
:1001E0000C9449160C94B7110C94C4270C947F26D8
:1001F0000C94471B0C94DA270C9408260C94491590
:100200000C9437250C94300E0C94F70F0C940316B5
:100210000C9492080C94C1270C94C4250C9490075C
:100220000C948B070C94D0250C94151B0C94EB119B
:100230000C94DD070C94A7260C94B1250C94411B5B
:100240000C94070F0C94BB070C9482100C9495111E
:100250000C943B1BFE92929282000000BE000000B4
:10026000000000000602FE02060000004C9292927E
:1002700064000000FE8282827C000000FE101010EC
:10028000FE000000FE80808080000000F824222410
:10029000F8000000FE041804FE000000FE123252B6
:1002A0008C0000007C8282827C000000FE0810200E
:1002B000FE0000002020F870200000000000000078
:1002C000003E5B4F5B3E3E6B4F6B3E1C3E7C3E1CDC
:1002D000183C7E3C181C577D571C1C5E7F5E1C0022
:1002E000183C1800FFE7C3E7FF0018241800FFE7D9
:1002F000DBE7FF30483A060E2629792926407F059C
:100300000507407F05253F5A3CE73C5A7F3E1C1CB1
:1003100008081C1C3E7F14227F22145F5F005F5F71
:1003200006097F017F006689956A6060606060945D
:10033000A2FFA29408047E040810207E2010080862
:100340002A1C08081C2A08081E101010100C1E0C6D
:100350001E0C30383E3830060E3E0E0600000000FF
:100360000000005F00000007000700147F147F14E6
:10037000242A7F2A1223130864623649562050002B
:1003800008070300001C2241000041221C002A1C17
:100390007F1C2A08083E0808008070300008080802
:1003A0000808000060600020100804023E51494522
:1003B0003E00427F400072494949462141494D3340
:1003C0001814127F1027454545393C4A49493141A7
:1003D000211109073649494936464949291E000075
:1003E00014000000403400000008142241141414CA
:1003F0001414004122140802015909063E415D59B6
:100400004E7C1211127C7F494949363E41414122BE
:100410007F4141413E7F494949417F090909013EE8
:10042000414151737F0808087F00417F410020400F
:10043000413F017F081422417F404040407F021C21
:10044000027F7F0408107F3E4141413E7F09090938
:10045000063E4151215E7F09192946264949493204
:1004600003017F01033F4040403F1F2040201F3FCA
:100470004038403F6314081463030478040361594F
:10048000494D43007F414141020408102000414191
:10049000417F04020102044040404040000307083D
:1004A0000020545478407F28444438384444442839
:1004B000384444287F385454541800087E090218E0
:1004C000A4A49C787F0804047800447D4000204068
:1004D000403D007F1028440000417F40007C0478AC
:1004E00004787C080404783844444438FC182424F4
:1004F0001818242418FC7C08040408485454542474
:1005000004043F44243C4040207C1C2040201C3CF0
:100510004030403C44281028444C9090907C4464E7
:10052000544C44000836410000007700000041367A
:10053000080002010204023C2623263C1EA1A16100
:10054000123A4040207A3854545559215555794132
:100550002254547842215554784020545579400C07
:100560001E527212395555555939545454593955EA
:100570005454580000457C410002457D420001452D
:100580007C407D1211127DF0282528F07C545545C1
:10059000002054547C547C0A097F4932494949322D
:1005A0003A4444443A324A4848303A4141217A3A3E
:1005B00042402078009DA0A07D3D4242423D3D400A
:1005C00040403D3C24FF2424487E4943662B2FFCB9
:1005D0002F2BFF0929F620C0887E09032054547967
:1005E000410000447D413048484A32384040227A38
:1005F000007A0A0A727D0D19317D2629292F2826B5
:100600002929292630484D402038080808080808BC
:100610000808382F10C8ACBA2F102834FA00007B15
:10062000000008142A142222142A14085500550028
:1006300055AA55AA55AAFF55FF55FF000000FF0017
:10064000101010FF00141414FF001010FF00FF1012
:1006500010F010F0141414FC001414F700FF000044
:10066000FF00FF1414F404FC141417101F10101FC3
:10067000101F1414141F00101010F0000000001FB1
:10068000101010101F10101010F010000000FF10BC
:100690001010101010101010FF10000000FF1400B8
:1006A00000FF00FF00001F10170000FC04F41414EA
:1006B0001710171414F404F40000FF00F7141414B6
:1006C00014141414F700F7141414171410101F1036
:1006D0001F141414F4141010F010F000001F101F59
:1006E0000000001F14000000FC140000F010F010C7
:1006F00010FF10FF141414FF141010101F0000003E
:1007000000F010FFFFFFFFFFF0F0F0F0F0FFFFFF41
:100710000000000000FFFF0F0F0F0F0F3844443898
:1007200044FC4A4A4A347E02020606027E027E02E7
:1007300063554941633844443C04407E201E2006F2
:10074000027E020299A5E7A5991C2A492A1C4C722F
:1007500001724C304A4D4D303048784830BC625AB6
:10076000463D3E494949007E0101017E2A2A2A2A46
:100770002A44445F444440514A444040444A514022
:100780000000FF0103E080FF000008086B6B0836E3
:1007900012362436060F090F060000181800000054
:1007A0001010003040FF0101001F01011E00191D43
:1007B0001712003C3C3C3C00000000000001030715
:1007C0000F1F3F7F0080C0E0F0F8FCFEDB40A4A6D6
:1007D0002EAF2000A1C8D300408DAED580A8000068
:1007E000600000000000000000000000000000E0C9
:1007F0000000000000000000000000000001E00018
:1008000000000000000000000000000001F00000F7
:10081000000000000000000000000003F0000000E5
:100820000000000000000000000007F000000000D1
:1008300000000000000000000007F80000000000B9
:1008400000000000000000000FF800000003C000DE
:100850007E000001E0007F0FF800000003C000FEF2
:10086000000001E000FFEFF800000003C000FE0000
:100870000001E000FFFFF800000003C000F00000EE
:10088000000F007FFE7FC0000003C000F0000000EA
:100890000F003FFE7FF83FF1FBCFFCFEF3BC3DEFC6
:1008A000E01FFE7FFF7FFBFFDFFEFEFFBC3DEFE0B2
:1008B0001FC6FFFF7FFBFFDFFEFEFFBC3DEFE00F2B
:1008C000E3C7FE787BC3DE1EF0FFBC3DEF0007FFF1
:1008D00087FC787BC3DE1EF0F83C3DEF0001FFFF94
:1008E000F0007BC3C01EF0F03C3DEF0001F37FE061
:1008F0003FFBC3CFFEF0F03C3DEF0003E33F807FC2
:10090000FBC3DFFEF0F03C3DEF0007E73C00787BE7
:10091000C3DE1EF0F03C3DEF0007FFBE00787BC356
:10092000DE1EF0F03C3DEF0007FFFE00787BC3DEEB
:100930001EF0F03C3DEF000FFFFE007FFBFFDFFEEF
:10094000F0F03FFDEFE00FFFFF007FFBFFDFFEF069
:10095000F03FFDEFE00FF9FF003E79F9CF9EF0F098
:100960001F3DE7E01FF1FF00000000000000000055
:100970000000001F80FF007FFFFFFFFFFFFFFFFF62
:10098000FFE01C007F007FFFFFFFFEB46D888D1825
:10099000E000001F007FFFFFFFFE95AD7DB577E013
:1009A00000000F007FFFFFFFFEA5AD9D8D19E00049
:1009B0000006007FFFFFFFFEB5ADEDB57EE0000055
:1009C0000000000180000000000000000000038023
:1009D00000000000000000000007C0000000000050
:1009E0000000000007C00000000000000000000F31
:1009F000C00000000000000000001FE00000000038
:100A000000000000001FE0000000000000000000E7
:100A10003FE00000000000000000003FF000000088
:100A20000000000000007FF0000000000000001F38
:100A3000F87FF0000000000000003FFE7FF00000A3
:100A400000000000003FFF7FF000000000000000F9
:100A50001FFFFBE0000000000000000FFFF9FFC0D7
:100A60000000000000000FFFF9FFF8000000000088
:100A70000007FFF1FFFF00000000000003FC73FF10
:100A8000FF80000000000001FE3FFFFF800000002B
:100A9000000000FF1E0FFF000000000000007FFEAE
:100AA0001FFC000000000000003FFFFFF8000000F6
:100AB000000000000FDFFFE0000000000000001F4A
:100AC00019FFC0000000000000003F3CFF000000D4
:100AD00000000000007E7CF8000000000000000024
:100AE0007FFE7C0000000000000000FFFFFC000013
:100AF000000000000000FFFFFE00000000000000FA
:100B000000FFFFFE0000000000000001FFEFFE00FC
:100B100000000000000001FFCFFE00000000000008
:100B20000003FF07FE0000000000000003FC07FEBA
:100B30000000000000000003F003FE0000000000C1
:100B40000000018000FE0000000000000000000026
:100B50007E000000000000000000003E00000000D9
:100B60000000000000000C000000000000078000F2
:100B7000FC000003C0000000078001FC000003C06F
:100B8000000000078001FC000003C0000000078097
:100B900001E00000001E000000078001E0000000EE
:100BA0001E007FE3F79FF9FDE7787BDFC0FFF7FFCB
:100BB000BFFDFDFF787BDFC0FFF7FFBFFDFDFF78C6
:100BC0007BDFC0F0F787BC3DE1FF787BDE00F0F70C
:100BD00087BC3DE1F0787BDE0000F787803DE1E0F7
:100BE000787BDE007FF7879FFDE1E0787BDE00FF0A
:100BF000F787BFFDE1E0787BDE00F0F787BC3DE1E1
:100C0000E0787BDE00F0F787BC3DE1E0787BDE003A
:100C1000F0F787BC3DE1E0787BDE00FFF7FFBFFD2A
:100C2000E1E07FFBDFC0FFF7FFBFFDE1E07FFBDF1F
:100C3000C07CF3F39F3DE1E03E7BCFC000000000AD
:100C400000000000000000FFFFFFFFFFFFFFFFFFAD
:100C5000FFC0FFFFFFFFFD68DB111A31C0FFFFFF80
:100C6000FFFD2B5AFB6AEFC0FFFFFFFFFD4B5B3B15
:100C70001A33C0FFFFFFFFFD6B5BDB6AFDC03FF077
:100C800000003FF000000FC000000FC000000FC0C8
:100C900000000FC000003FFFC0003FFFC0000FFF7B
:100CA00000000FFF000003FFFF0003FFFF00FCFF39
:100CB000FFF0FCFFFFF03FFF03FF3FFF03FF3FFF9D
:100CC00003FF3FFF03FFFCFFFFF0FCFFFFF003FF0C
:100CD000FF0003FFFF000FFF00000FFF00003FFFBA
:100CE000C0003FFFC0000FC000000FC000000FC0D9
:100CF00000000FC000003FF000003FF0000038701F
:100D0000F87E7EF87038001E3A7A7A3A1E0000F4B7
:100D1000F6F7F7F6F4001E2141828241211E0008F9
:100D20001C3F1C0800000008147A5C3418001C1CCE
:100D3000083E3E081C1C00000000000000000000EF
:100D40002100240027002A002D003000330001017B
:100D50000000040107010A0100002200250028000C
:100D60002B002E00310034000201000005010801B3
:100D70000B0105050505070508080808020202021F
:100D80000A0A080804040404010101010101010127
:100D90000303030303030303040707070C0C0C0CF2
:100DA0000C0C0C0C020202020606060606060606DB
:100DB0000B0B0B0B0B0B0B0B010210202008081068
:100DC00020401020408002010201080402010102BB
:100DD0000408102040808040201008040201800494
:100DE00002018040201008040201080402010102EF
:100DF00004081020408001020408102040800000F8
:100E00000A0B02090C0D0E08070304010000000084
:100E100000000000000000000000000000000000D2
:100E2000000000000000000000001211100000008F
:100E300000000000000000000000000000000000B2
:100E4000000000002200FF2100006A1EDA271124A2
:100E50001FBECFEFD1E2DEBFCDBF00E00CBF12E07E
:100E6000A0E0B2E0E8E2F7E500E00BBF02C00790C7
:100E70000D92AE38B107D9F724E0AEE8B2E001C078
:100E80001D92AB3CB207E1F717E0C6E2D7E000E005
:100E900006C021970109802FFE010E942E2AC5322B
:100EA000D10780E00807A9F70E94C51E0C94822B89
:100EB0000C9400000895282F30E0F901E250F24F21
:100EC0009491F901E854F24F44912E58324FF901B0
:100ED0002491222309F435C0992311F191509231C4
:100EE000F8F4E92FF0E08827E758F84F8F4F0C947B
:100EF0002E2AAA07AE078B07A207A6079007B107FD
:100F0000B707BB07C107C507C907CF07D3079007B6
:100F1000D707DD07E107809180008F7780938000FD
:100F2000E22FF0E0EE0FFF1FE85AF24FA591B491C7
:100F30008FB7F894EC91611148C040954E234C93C3
:100F40008FBF0895809180008F7DE8CF80918000D1
:100F5000877FE4CF84B58F7784BDE2CF84B58F7D62
:100F6000FBCF8091B0008F778093B000D9CF809174
:100F7000B0008F7DF9CF809190008F7780939000A3
:100F8000CFCF809190008F7DF9CF80919000877FA7
:100F9000F5CF8091A0008F778093A000C1CF809182
:100FA000A0008F7DF9CF8091A000877FF5CF809141
:100FB00020018F7780932001B3CF809120018F7D16
:100FC000F9CF80912001877FF5CF4E2BB8CFCF93FB
:100FD000DF9390E0FC01E854F24F24918E58924F39
:100FE000FC0184918823D1F090E0880F991FFC01C7
:100FF000E25CF24FA591B491FC01E85AF24FC59121
:10100000D49161110EC09FB7F8948C91E22FE095B6
:101010008E238C932881E223E8839FBFDF91CF91B9
:1010200008958FB7F894EC91E22BEC938FBFF6CF35
:1010300090917B00977F90937B0086538064809390
:101040007C0080917A00806480937A0080917A009D
:1010500086FDFCCF809178009091790008953FB78C
:10106000F8948091730490917404A0917504B091E8
:10107000760426B5A89B05C02F3F19F00196A11D47
:10108000B11D3FBFBA2FA92F982F8827BC01CD01D2
:10109000620F711D811D911D42E0660F771F881F31
:1010A000991F4A95D1F708958F929F92AF92BF9260
:1010B000CF92DF92EF92FF924B015C010E942F08CA
:1010C0006B017C010E942F086C197D098E099F0914
:1010D000683E734081059105A8F321E0821A9108CA
:1010E000A108B10888EEC80E83E0D81EE11CF11CEF
:1010F00081149104A104B10429F7FF90EF90DF90CF
:10110000CF90BF90AF909F908F90089581E0809393
:101110006A04089581E080936904089581E08093D2
:1011200068040895089508950895AF92BF92CF92EC
:10113000DF92EF92FF920F931F93CF93DF936C0197
:101140007B018B01040F151FEB015E01AE18BF0878
:10115000C017D10759F06991D601ED91FC9101902A
:10116000F081E02DC6011995892B79F7C501DF9132
:10117000CF911F910F91FF90EF90DF90CF90BF9094
:10118000AF900895EF92FF920F931F93CF93DF9349
:10119000EC01EC80FD806E157F050CF070C057FFF0
:1011A00004C0240F351F50E040E08E819F81FA017A
:1011B000E20FF31F8E179F071CF49C01241B350BB5
:1011C000121613060CF05BC0922F842F869586951D
:1011D00086958E9DD0018F9DB00D11246A0F7B1FC7
:1011E000AF8DB8A1A60FB71F477049F188E0841BE7
:1011F000482F682F70E0FB01EC53F84FE49128175B
:1012000008F063C0621B71092FEF30E002C0359512
:1012100027956A95E2F7E2230130110539F0B0F124
:101220000230110561F58C91E82702C08C91E82B02
:10123000EC93941720F12C813D81A20FB31FE92F6D
:10124000E41BE83078F00230110521F58E2F9C91D7
:1012500090959C932C813D81A20FB31F88508830BC
:10126000B0F7E770EE2359F0F0E0E454F84FE49162
:1012700001301105F9F010F10230110519F1DF917B
:10128000CF911F910F91FF90EF900895E0958C9171
:10129000E823CECF81E00115110509F480E08195A6
:1012A0009E2F8C932C813D81A20FB31F98509830B4
:1012B000C0F7D7CF8C91E82BEC93E1CFE0958C91E0
:1012C000E823FACF8C91E827F7CF0130110509F414
:1012D000ADCFE0F20230110509F4A5CFAE0DBF1D70
:1012E000AECF0F931F93CF93DF9377FF04C0260FEA
:1012F000371F70E060E0DC011496CD91DC91FB01BA
:10130000E20FF31FCE17DF071CF49E01261B370BDD
:10131000121613064CF5FA0157FD3796A3E0F59522
:10132000E795AA95E1F7EC9FD001ED9FB00DFC9FEA
:10133000B00D11246A0F7B1FDC015F96ED91FC91CB
:10134000E60FF71F4770552781E090E001C0880F36
:101350004A95EAF7482F0130110559F0A8F02E0FF1
:101360003F1F02301105E1F0DF91CF911F910F91E6
:1013700008952E0F3F1FE217F307B1F38191DF01AC
:101380001197842B8C93F7CF80952E0F3F1FE21778
:10139000F30751F39191DF01119798239C93F7CFB5
:1013A000E217F30709F38191DF01119784278C93EA
:1013B000F7CF0F931F93FA01DC0156964C91569785
:1013C0004230E9F04330A1F1413061F514964D917E
:1013D0005C91DA01AE1BBF0BFD01E21BF30B77FD45
:1013E0000BC0DC0116964D915C916417750724F4CF
:1013F000AB01BF010E9471091F910F9108951496CE
:101400004D915C91DA01A61BB70BBD0161507109CA
:10141000DC0116964D915C91DA01AE1BBF0BFD010C
:10142000E21BF30B77FDE8CFAF010E94C208E4CFC7
:1014300016964D915C91DA01A61BB70BBD01615068
:101440007109CDCF0F931F93FA01DC0156964C9191
:1014500056974230A9F0433091F1413019F5149676
:101460004D915C91DA01AE1BBF0BFD013197F7FD89
:1014700004C0AB01BF010E94C2081F910F910895E3
:1014800014964D915C91DA01A61BB70BBD01DC01EE
:1014900016964D915C91DA01AE1BBF0BFD013197A1
:1014A000621B730BF7FDE9CFDC0116964D915C9141
:1014B000E417F50714F7AF010E947109DECF169605
:1014C0004D915C91DA01A61BB70BBD01621B730B3A
:1014D000CECFFC0177FD64C08085918568177907C0
:1014E0000CF05EC057FD5CC0828593854817590794
:1014F0000CF056C086898230B1F0833029F18130FA
:1015000041F484819581841B950BAB01BC01615032
:1015100071092130310509F108F443C02230310549
:1015200009F463C0089584819581DC01A61BB70B83
:10153000BD016150710986819781DC01A41BB50B47
:10154000AD0141505109E5CF86819781861B970BEC
:10155000BA01AC0141505109DCCFCA0157FD0796D1
:10156000A3E095958795AA95E1F7A481B5818A9F17
:1015700090018B9F300D9A9F300D1124620F731FC5
:10158000078CF0A1E02DE60FF71F4770552721E0EB
:1015900030E001C0220F4A95EAF78081822B8083D8
:1015A0000895CA0157FD079633E0959587953A95BA
:1015B000E1F7A481B5818A9F90018B9F300D9A9F9E
:1015C000300D1124620F731F078CF0A1E02DE60F80
:1015D000F71F4770552781E090E001C0880F4A95BA
:1015E000EAF7809590818923DACFCA0157FD0796E3
:1015F00023E0959587952A95E1F7A481B5818A9F87
:1016000090018B9F300D9A9F300D1124620F731F34
:10161000078CF0A1E02DE60FF71F4770552721E05A
:1016200030E001C0220F4A95EAF780818227B7CFC8
:1016300008958EBD00000DB407FEFDCF8EB5089550
:101640008CBD9DBD08950895FC016370668B8481F7
:10165000958126813781613039F0633029F0918797
:1016600080873387228708953187208793878287F1
:1016700008952F923F924F925F926F927F928F9236
:101680009F92AF92BF92CF92DF92EF92FF920F9311
:101690001F93CF93DF93CDB7DEB76A970FB6F89459
:1016A000DEBF0FBECDBF9A8F898F7A8369834A01CF
:1016B000D22E18870F833701BC2CDC0159962D914F
:1016C0003C915A972115310509F015C118968D9155
:1016D0009C911997681779070CF0D7C11A968D91CC
:1016E0009C91481759070CF0D0C14C2C512CB6E0F6
:1016F000CB9E600D711D11247C876B871616170613
:101700000CF0C3C1EA2DF0E0FA87E98793E0EE0F11
:10171000FF1F9A95E1F7F88BEF87CF01840F951F94
:10172000181619060CF0B1C1A98DBA8D58968C9176
:10173000811104C0BFEABD1508F4D394A98DBA8DF8
:10174000ED91FC9111970284F385E02DCD0119955F
:10175000B5E0DB9EC0011124E981FA81FC83EB83B3
:10176000312C212C9C0124543D4F388F2F8B4A2D36
:1017700050E05E8B4D8BEF89F88DE20DF31D4491A7
:101780009E828D82D12CC12C69817A81620D731D5C
:101790007A8B698B842F90E09C8B8B8BE98DFA8DF3
:1017A000A081B18140FF82C0F1E0BF126FC0AF12D3
:1017B0006DC01C96ED91FC912F813885A4014C0DD4
:1017C0005D1D69897A89898D9A8D1995EB89FC89C6
:1017D000F595E7954E2F5FEFC51AD50A6D817E818D
:1017E0008D899E89680F791F7E836D8398E0C91665
:1017F000D10481F6AFEF2A1A3A0AEB81FC81E40D9D
:10180000F51DFC83EB83F5E02F16310409F0B3CF0F
:101810002F81388526153705B9F0A98DBA8DED9140
:10182000FC91B1E0BB1257C0AB1255C069817A81FF
:101830006B5F7F4F0088F189E02D830128E030E065
:10184000A401898D9A8D1995A98DBA8DED91FC9180
:1018500011970688F789E02DCD016A960FB6F894A6
:10186000DEBF0FBECDBFDF91CF911F910F91FF90D3
:10187000EF90DF90CF90BF90AF909F908F907F9030
:101880006F905F904F903F902F9019941E96ED911E
:10189000FC91EF80F88409851A8592014D815E8163
:1018A0006B817C81898D9A8D199590CF2F81388598
:1018B0002615370509F48ACF31E0B31207C0A31209
:1018C00005C01C96ED91FC91930178CF1E96ED9189
:1018D000FC917301E0CF6B857C85641975090684E2
:1018E000F785E02D73010F8518899201A401898D78
:1018F0009A8D1995A9CFF901349694913297459113
:101900005491D91AB7E0DB9E400D511D1124F90105
:10191000259134913C8B2B8BFA0125903490FA0160
:101920003296749031963491398B32966490319618
:10193000449041E04C1518F04A1508F07FC0662D20
:10194000062C000C770B7C836B83842D042C000CFD
:10195000990B9E838D83A98DBA8DED91FC91119782
:101960000284F385E02DCD011995512CD12CC12C89
:10197000EA2DF0E0FA87E9872B2D30E03C872B87B2
:10198000A401440D511D47FC5A95588F4F8B698116
:101990007A81660D711D67FC7A957E876D877989DE
:1019A000C71608F051CF2C2D30E04D815E81420FDB
:1019B000531FA985BA854A9FC0014B9F900D5A9F1E
:1019C000900D1124FC01E80DF91DF88BEF87852D92
:1019D000612C4F89588D420F531F5E8B4D8B6714BE
:1019E00008F050C044244394480E877041F4C1016C
:1019F0000196EB89FC89E20DF31DD4901C01D7FE02
:101A000019C0A98DBA8DED91FC91662D70E0B1E001
:101A1000BB1219C0AB1217C02D853E85620F731F14
:101A20000484F585E02D2F8138854D895E89898D67
:101A30009A8D1995DD0C6394842DD1CF1E821D8261
:101A40001C821B8288CF4B815C81640F751FAB8524
:101A5000BC856A9FC0016B9F900D7A9F900D1124E9
:101A600069817A81680F791F0684F785E02DEF8000
:101A7000F88409851A859D014F855889898D9A8D2D
:101A80001995D8CF570CC3948ACF6A960FB6F8949D
:101A9000DEBF0FBECDBFDF91CF911F910F91FF90A1
:101AA000EF90DF90CF90BF90AF909F908F907F90FE
:101AB0006F905F904F903F902F9008958F929F92DC
:101AC000AF92CF92EF92FF920F931F93CF93DF933A
:101AD000EC01262F898D9A8D009709F051C06A304C
:101AE000D1F41D861C868D8948E0849F90011124C5
:101AF0008E859F85820F931F9F878E8781E090E060
:101B0000DF91CF911F910F91FF90EF90CF90AF9009
:101B10009F908F9008956D3089F3CC88AD888F8920
:101B20008823C1F08C859D8536E0C39E800D911D74
:101B30001124488559854817590764F44E855F85F7
:101B40001D861C8638E0A39EC0011124840F951FBA
:101B50009F878E87EA88FB88088919894E855F856B
:101B60006C857D85CE010E94390B2C898C859D85E5
:101B700046E0249F800D911D11249D878C87BECF48
:101B80006A3069F41D861C86FC013896E4912D8923
:101B90008E859F85E29F800D911D1124ADCF6D3004
:101BA00009F4ACCFFC0134963491631708F4A6CF46
:101BB0003296E491E61708F4A1CFFC0132968590A5
:101BC0009490462F431B342F47E0349F800C911C88
:101BD0001124F401329634913196E4913323A9F122
:101BE000EE2399F1CC88F4013596E491AD884F89C4
:101BF000442301F10E2E000CFF0BE30FF11DCE9ECE
:101C0000A001CF9E500D11246C857D85460F571F76
:101C100068857985641775076CF44E855F851D8628
:101C20001C86FC013896E491AE9E400D511D112496
:101C30005F874E87EA88FB88088919894E855F850A
:101C40006C857D85CE010E94390BF4013496E491B8
:101C50002C898C859D85E29F800D911D11248DCF4F
:101C60006F927F928F929F92AF92BF92CF92DF92AC
:101C7000EF92FF920F931F93CF93DF93EC016B01D1
:101C80005A0139014801E881F9810284F385E02D88
:101C90001995E881F9810288F389E02D8701930184
:101CA000A501B601CE011995A501480D591D415058
:101CB0005109E881F9810288F389E02D9301B60189
:101CC000CE011995E881F9810088F189E02D940110
:101CD000A501B601CE011995C60CD71CB6016150FD
:101CE0007109E881F9810088F189E02D9401A5014D
:101CF000CE011995E881F9810688F789E02DCE019A
:101D0000DF91CF911F910F91FF90EF90DF90CF90D7
:101D1000BF90AF909F908F907F906F9019946F922B
:101D20007F928F929F92AF92BF92CF92DF92EF926B
:101D3000FF920F931F93CF93DF935C01EB016A0136
:101D4000490138018701DC01ED91FC9162177307AD
:101D500019F5641675062CF0962D872D3A01C92EBB
:101D6000D82E9601261937092F5F3F4F048CF58D29
:101D7000E02DA301BE01C5011995DF91CF911F91FF
:101D80000F91FF90EF90DF90CF90BF90AF909F901A
:101D90008F907F906F9008954615570591F4261700
:101DA000370724F0892D4B01C22FD82F9E01281907
:101DB00039092F5F3F4F068CF78DE02DA601B40146
:101DC000DACF0284F385E02D1995D501ED91FC91D0
:101DD0000488F589E02D83019401A601BE01C501A7
:101DE0001995D501ED91FC910688F789E02DC50183
:101DF000DF91CF911F910F91FF90EF90DF90CF90E7
:101E0000BF90AF909F908F907F906F901994EF92BA
:101E1000FF920F931F93DC011A960D911C911B9753
:101E200018962D913C911997ED91FC9100A0F1A18C
:101E3000E02D7B0150E040E070E060E019951F91DB
:101E40000F91FF90EF9008954F925F926F927F9263
:101E50008F929F92AF92BF92CF92DF92EF92FF92BA
:101E60000F931F93CF93DF936C012B015A0139011C
:101E70004801DC01ED91FC910284F385E02D199578
:101E8000E201640C751CD601ED91FC91C615D705D5
:101E90005CF40088F189E02D87019401A501BE0161
:101EA000C60119952196EFCF0688F789E02DC60166
:101EB000DF91CF911F910F91FF90EF90DF90CF9026
:101EC000BF90AF909F908F907F906F905F904F905A
:101ED00019948F929F92AF92BF92CF92DF92EF921E
:101EE000FF920F931F93CF93DF93EC015B014A01A5
:101EF0006901E881F9810284F385E02D1995950146
:101F00002C0D3D1D21503109E881F9810488F589A6
:101F1000E02D78018401A401B501CE011995E88175
:101F2000F9810688F789E02DCE01DF91CF911F91CD
:101F30000F91FF90EF90DF90CF90BF90AF909F9068
:101F40008F9019948F929F92AF92BF92CF92DF920F
:101F5000EF92FF920F931F93CF93DF93EC015B01FE
:101F60004A0169017801E881F9810284F385E02D55
:101F70001995C80CD91C860101501109E881F98115
:101F80000488F589E02D9501A401B501CE011995CC
:101F9000E881F9810688F789E02DCE01DF91CF91A4
:101FA0001F910F91FF90EF90DF90CF90BF90AF9077
:101FB0009F908F901994EF92FF920F931F93DC01E3
:101FC000ED91FC9100A0F1A1E02D19951F910F91C9
:101FD000FF90EF9008950F931F93DC01ED91FC911A
:101FE000068CF78DE02D19951F910F9108950F9391
:101FF0001F93DC01ED91FC91048CF58DE02D19957A
:102000001F910F910895DC01ED91FC910084F18501
:10201000E02D19943F924F925F926F927F928F9230
:102020009F92AF92BF92CF92DF92EF92FF920F9367
:102030001F93CF93DF9300D000D0CDB7DEB74C0114
:102040002B015A013901C80107969C0193E035958F
:1020500027959A95E1F73C832B83CA018E0D9F1D2E
:102060009A838983F12CE12C312C1E821D828D8173
:102070009E8187709927330C892B61F4ED81FE8155
:1020800083E0F595E7958A95E1F7EE0DFF1DE60DE6
:10209000F71D349037FE09C09601A5016D817E8140
:1020A000640D751DC4010E9403102D813E812F5FB8
:1020B0003F4F3E832D8302171307C9F63FEFA31A44
:1020C000B30A8B819C81E80EF91E29813A81A21600
:1020D000B30659F626960FB6F894DEBF0FBECDBFF5
:1020E000DF91CF911F910F91FF90EF90DF90CF90F4
:1020F000BF90AF909F908F907F906F905F904F9028
:102100003F9008952F923F924F925F926F927F92ED
:102110008F929F92AF92BF92CF92DF92EF92FF92F7
:102120000F931F93CF93DF9300D000D0CDB7DEB7CE
:102130003C016A013E832D83FC82EB825801A41A84
:10214000B50AB7FE03C0B194A194B1088D809E80FA
:10215000861A970A97FE03C09194819491088A1475
:102160009B045CF0902F812F0D811E819D838E83B7
:102170009C2D8D2D6B01692F782F0C151D055CF0A2
:102180009D818E817E836D83692F782F902F812F83
:102190008601C92ED82E1601201A310A2B012D8155
:1021A0003E81421A530A57FE03C05194419451088C
:1021B000710137FE03C03FEFE31AF30AF594E79489
:1021C0008D819E81861797075CF5A1E0B0E0BA8308
:1021D000A983C016D1064CF1D301ED91FC91048482
:1021E000F585E02D2B813C81A8016D817E818A14CB
:1021F0009B041CF04D815E81B801C3011995E41860
:10220000F508F7FE0AC02D813E8189819A81280F49
:10221000391F3E832D83E20CF31C0F5F1F4FD9CF74
:102220002FEF3FEF3A832983D4CF26960FB6F89449
:10223000DEBF0FBECDBFDF91CF911F910F91FF90F9
:10224000EF90DF90CF90BF90AF909F908F907F9056
:102250006F905F904F903F902F9008950895209138
:10226000F402260F3327331F21323105ECF420917D
:102270001803FC0190E080E0243069F082E00895CA
:10228000A091F4022191AC014C525D4FA40FB52FE7
:10229000B11D2C930196861798F38091F402680F74
:1022A0006093F40280E0089581E00895109218038D
:1022B00081E080931A031092190361E084E10E9487
:1022C0005B0761E085E10E945B07E9EBF0E080815C
:1022D0008E7F808380818D7F808388E48093B800A7
:1022E00085E48093BC000895CF93DF9391E09093B1
:1022F000D3028823B9F0C091B800D091BA00809180
:10230000BC008A7B8093BC0060E084E10E945B0794
:1023100060E085E10E945B070E945611D093BA00ED
:10232000C093B800DF91CF910895E091440380916C
:102330004303E81730F4F0E0E255FD4F808190E070
:1023400008958FEF9FEF0895909144038091430388
:102350002FEF3FEF981748F4E92FF0E0E255FD4FDB
:10236000208130E09F5F90934403C90108958091DC
:10237000430390914403891B990B0895CF92DF92F8
:10238000EF92FF920F931F93CF93DF937C01CB01CA
:102390008A0120917A04222389F0EB016B01C40E9B
:1023A000D51ECC15DD0569F06991D701ED91FC9141
:1023B0000190F081E02DC7011995F3CF642F0E94A1
:1023C0002F11C801DF91CF911F910F91FF90EF90D6
:1023D000DF90CF900895CF93DF931F92CDB7DEB7F4
:1023E000698320917A042223F9F020917704203226
:1023F00058F021E030E0FC013383228390E080E05C
:102400000F90DF91CF91089580917804E82FF0E04C
:10241000E257FD4F998190838F5F8093780480937A
:10242000770481E090E0ECCF61E0CE0101960E945C
:102430002F11F7CFCF92DF92EF92FF920F931F935E
:10244000CF93DF93D091770481E0D13208F09CC024
:10245000C09179040E942F086B017C0180911803C0
:1024600081116CC082E08093180381E080931A038D
:102470008FEF8093170310923C03D0933B03AEE899
:10248000B2E0EBE1F3E080E0D8138DC010923D03A1
:1024900080913D03CC0FC82BC0933D03809119035D
:1024A000813009F084C0109219030E942F086B013B
:1024B0007C0180913D038093BB008091CF0290917D
:1024C000D002A091D102B091D202892B8A2B8B2B02
:1024D000A1F00E942F080091CF021091D00220910C
:1024E000D1023091D2026C197D098E099F0906171D
:1024F00017072807390708F442C08091BC0083FD04
:10250000D8CF85EC8093BC000E942F086B017C0122
:1025100080911803823009F44CC0809117038F3FDB
:1025200009F469C080911703803209F466C0809174
:102530001703803309F463C084E026C08091CF0282
:102540009091D002A091D102B091D202892B8A2B16
:102550008B2B09F483CF0E942F080091CF0210919A
:10256000D0022091D1023091D2026C197D098E09DE
:102570009F09061717072807390708F06FCF8091C2
:10258000CE020E94741185E01092780410927704B4
:1025900010927A04DF91CF911F910F91FF90EF90ED
:1025A000DF90CF9008959D9191938F5F6DCF85EED1
:1025B000A9CF8091CF029091D002A091D102B09189
:1025C000D202892B8A2B8B2B09F4A2CF0E942F08D1
:1025D0000091CF021091D0022091D1023091D2020D
:1025E0006C197D098E099F090617170728073907F7
:1025F00008F08ECFC4CF80E0C7CF82E0C5CF83E0A4
:10260000C3CFEF92FF920F931F93CF93DF937C0181
:10261000C62F8091A4049091A504009709F459C095
:102620002091A80431E030937A0420937904109229
:10263000780410927704DC01ED91FC910190F08117
:10264000E02D60E019958701EE24E394F12CD1E0B0
:10265000C1508091A4049091A504CF3F91F1B0E2C4
:10266000EB16F104D8F00E941A128091A404909104
:10267000A5042091A804D0937A04209379041092A1
:10268000780410927704DC01ED91FC910190F081C7
:10269000E02D60E01995EE24E394F12C8091A404E0
:1026A0009091A504F8016491DC01ED91FC910190F9
:1026B000F081E02D1995BFEFEB1AFB0A0F5F1F4F5A
:1026C000C7CFDF91CF911F910F91FF90EF900C94A6
:1026D0001A12E091B404F091B50490818091BA048B
:1026E0008095892380838701C15008F438C0F801A0
:1026F00084912091A2043091A304232B29F00E94FD
:10270000190B0F5F1F4FF0CF28E030E040E8E09159
:10271000B004F091B1049091B804582F5423D9F02B
:102720005081952B9083E091B204F091B304908195
:102730005091B904952B9083E091B204F091B304C9
:1027400050819091B904909595239083469521509E
:102750003109E9F6D6CF508190959523E3CFDF91EB
:10276000CF911F910F91FF90EF9008951F93CF93FA
:10277000DF93EC018D8D9E8D009721F1162F29A1FD
:1027800031E030937A042093790410927804109207
:102790007704DC01ED91FC910190F081E02D60E087
:1027A00019958D8D9E8DDC01ED91FC910190F0814C
:1027B000E02D612F19958D8D9E8DDF91CF911F9109
:1027C0000C941A12ADA5BEA59C918BA98095892366
:1027D0008C938B8D9C8D892B31F0862FDF91CF913F
:1027E0001F910C94190B28E030E080E8A9A5BAA548
:1027F00099A9462F4823C1F04C91942B9C93ABA5EB
:10280000BCA59C914AA9942B9C93ABA5BCA54C91CB
:102810009AA9909594239C9386952150310931F77C
:10282000DF91CF911F9108954C9190959423E6CF1D
:10283000DF92EF92FF920F931F93CF93DF938091DC
:10284000A4049091A504892B09F498C02091BC049C
:102850003091BD044091BE045091BF0460E074E229
:1028600084EF90E00E94BF282051310941095109AD
:1028700056954795379527952093B80065E084E4F1
:102880009EE00E94011360918B04615087E894E000
:102890000E94B61320918D0430918E04C9010796D1
:1028A00097FD079633E0959587953A95E1F7209146
:1028B0008B0430918C04829F8001839F100D929F26
:1028C000100D1124C091A604D091A7048091A404F6
:1028D0009091A5040C0F1D1F009709F48FC0209143
:1028E000A80431E030937A0420937904109278049C
:1028F00010927704DC01ED91FC910190F081E02DC4
:1029000060E41995EE24E394F12CDD24D3948091B6
:10291000A4049091A5040C171D0709F446C0B0E269
:10292000EB16F104D8F00E941A128091A404909141
:10293000A5042091A804D0927A04209379041092DF
:10294000780410927704DC01ED91FC910190F08104
:10295000E02D60E41995EE24E394F12C8091A40419
:102960009091A5046991DC01ED91FC910190F081B9
:10297000E02D1995BFEFEB1AFB0AC9CF8091A20495
:102980009091A304892B31F08091C5049091C604E5
:102990000E94200BE091B604F091B70490818091E1
:1029A000BB0480958923808369CF0E941A1280918D
:1029B000A4049091A504892B09F461C02091C0045E
:1029C0003091C1044091C2045091C30460E074E2AC
:1029D00084EF90E00E94BF2820513109410951093C
:1029E00056954795379527952093B800DF91CF915D
:1029F0001F910F91FF90EF90DF900895E091B40444
:102A0000F091B50480819091BA04892B80830C17D2
:102A10001D0769F289912091A2043091A304232B10
:102A200019F00E94190BF3CF28E030E040E8E09164
:102A3000B004F091B1049091B804582F5423D9F008
:102A40005081952B9083E091B204F091B304908172
:102A50005091B904952B9083E091B204F091B304A6
:102A600050819091B904909595239083469521507B
:102A70003109E9F6CCCF508190959523E3CFE091D1
:102A8000B604F091B70480819091BB04892B8083B8
:102A9000ADCF1F93CF93DF93EC01162F8D8D9E8DBD
:102AA000892BB1F12DA93EA94FA958AD60E074E280
:102AB00084EF90E00E94BF2820513109410951095B
:102AC00056954795379527952093B80066EA1111DA
:102AD00067EACE010E94B6138D8D9E8D892B41F140
:102AE00029AD3AAD4BAD5CAD60E074E284EF90E0AF
:102AF0000E94BF2820513109410951095695479537
:102B0000379527952093B800DF91CF911F910895B5
:102B10008B8D9C8D892B21F08EAD9FAD0E94200B5B
:102B2000EFA5F8A990818CA9809589238083CECFC9
:102B3000EFA5F8A980819CA9892B8083E5CF90E03F
:102B400080E00895CF92DF92EF92FF920F931F9350
:102B5000CF93DF93EC018B018EE08C9F70018D9FF2
:102B6000F00C1124D12CC12CD601AA0FBB1FAE0D25
:102B7000BF1DA65EBD4F60E08C910E945B078FEF8A
:102B8000C81AD80A87E0C816D10471F7F80131973E
:102B90002EE02C9FC0012D9F900D1124EC01C65EEC
:102BA000DD4F61E0E930F10578F48827E552FA4E0F
:102BB0008F4F0C942E2A49160316151623162D1620
:102BC000371645164F16551688810E945B0761E03F
:102BD0008A810E945B0761E08C810E945B0761E053
:102BE0008E810E945B0761E088850E945B0761E03F
:102BF0008A85DF91CF911F910F91FF90EF90DF9029
:102C0000CF900C945B0788810E945B0761E08A810A
:102C10000E945B0761E08E810E945B0761E088850E
:102C20000E945B0761E08C85E4CF88810E945B078E
:102C300061E08A810E945B0761E08C810E945B07F2
:102C400061E08E81EDCF8A810E945B0761E08C811B
:102C50000E945B0761E08A85E3CF88810E945B0761
:102C600061E08C810E945B0761E08E81F1CF8881F9
:102C70000E945B0761E08C810E945B0761E08E81AE
:102C80000E945B0761E08885E3CF88810E945B0733
:102C900061E08A810E945B0761E08C81AACF888114
:102CA0000E945B0761E08A81E3CF88810E945B0715
:102CB00061E08A81D3CF81E0809353042FB7F894E9
:102CC00080916F0490917004A0917104B09172048E
:102CD0002FBF80934F0490935004A0935104B0935E
:102CE00052040895CF92DF92EF92FF920F931F93B9
:102CF000CF93DF93809145039091460318161906F0
:102D00000CF064C020916B0430916C0422303105CA
:102D100009F05CC001979093460380934503880FA8
:102D2000991FFC01EC5BFD4F60E080810E945B0716
:102D30004091660450916704FA01EE0FFF1FE15BBA
:102D4000FC4FC1E0D0E0808991899C01215031097C
:102D50002230310508F043C063E0CC0FDD1F6A95D7
:102D6000E1F7E0906D0481E0E826F12C73E0440F78
:102D7000551F7A95E1F708E010E028E030E0BE0149
:102D800087E894E00E94240FC0906D04D12C4091FC
:102D9000660450916704E3E0440F551FEA95E1F79C
:102DA000F8E0EF2EF12C26E33DE0BE0187E894E049
:102DB0000E940A106091660470916704C60FD71FC5
:102DC000CC0FDD1FC15BDC4F19821882DF91CF91E0
:102DD0001F910F91FF90EF90DF90CF900895039790
:102DE000E9F583E0CC0FDD1F8A95E1F7E0906D04F3
:102DF00081E0E826F12C93E0440F551F9A95E1F706
:102E000008E010E028E030E0BE0187E894E00E948E
:102E1000240FC0906D04D12C40916604509167043A
:102E200023E0440F551F2A95E1F738E0E32EF12CFB
:102E300026E23DE0BE0187E894E00E940A1060911E
:102E4000660470916704C60FD71FCC0FDD1FC15BEE
:102E5000DC4F82E090E099838883B8CF219670960A
:102E6000C031D10509F06FCFB1CFCF93DF93C091BF
:102E70004503D0914603C330D10574F4FE01EE0F33
:102E8000FF1FEC5BFD4F61E080810E945B07219694
:102E9000D0934603C0934503DF91CF910895CF931C
:102EA000DF930E945B16C0914703D091480321979E
:102EB000D0934803C0934703FE01EE0FFF1FE65B6C
:102EC000FD4F60E080810E945B0761E08AE00E9424
:102ED0005B0762E370E080E090E00E94540860E0ED
:102EE0008AE00E945B071C161D060CF4DEC061E040
:102EF00084E00E945B0761E087E00E945B0761E07D
:102F000085E00E945B0761E088E00E945B0761E06A
:102F100086E00E945B0761E089E00E945B0761E058
:102F20008AE00E945B0762E370E080E090E00E942C
:102F3000540860E08AE00E945B0764E670E080E08D
:102F400090E00E94540860E084E00E945B0760E02B
:102F500087E00E945B0760E085E00E945B0760E01D
:102F600088E00E945B0760E086E00E945B0760E00B
:102F700089E00E945B0764E670E080E090E00E94D8
:102F8000540861E084E00E945B0761E087E00E94F2
:102F90005B0761E085E00E945B0761E088E00E94DA
:102FA0005B0761E086E00E945B0761E089E00E94C8
:102FB0005B0761E08AE00E945B0762E370E080E00B
:102FC00090E00E94540860E08AE00E945B0764E69B
:102FD00070E080E090E00E94540860E084E00E948D
:102FE0005B0760E087E00E945B0760E085E00E948D
:102FF0005B0760E088E00E945B0760E086E00E947B
:103000005B0760E089E00E945B0764E670E080E0B7
:1030100090E00E94540861E084E00E945B0761E058
:1030200087E00E945B0761E085E00E945B0761E04A
:1030300088E00E945B0761E086E00E945B0761E038
:1030400089E00E945B0761E08AE00E945B0762E31F
:1030500070E080E090E00E94540860E08AE00E9406
:103060005B0764E670E080E090E00E94540860E056
:1030700084E00E945B0760E087E00E945B0760E0FD
:1030800085E00E945B0760E088E00E945B0760E0EB
:1030900086E00E945B0760E089E00E945B0784E0B5
:1030A00090E090936C0480936B04DF91CF9108952E
:1030B000CF93DF93C0914703D0914803C330D1052C
:1030C00074F4FE01EE0FFF1FE65BFD4F61E08081AF
:1030D0000E945B072196D0934803C0934703DF917A
:1030E000CF910895CF92DF92EF92FF920F931F93AB
:1030F000E0906D0481E0E826F12C05E010E025E089
:1031000030E045E050E06BE270E087E894E00E9438
:10311000240FC0906D04D12C88E0E82EF12C08E03B
:1031200010E024EB32E045E050E06FE170E087E82A
:1031300094E00E940A101F910F91FF90EF90DF9092
:10314000CF900C941814CF92DF92EF92FF920F93CE
:103150001F93E0906D0481E0E826F12C05E010E07B
:1031600025E030E045E050E06FE170E087E894E072
:103170000E94240FC0906D04D12C88E0E82EF12C21
:1031800008E010E024EB32E045E050E06BE270E054
:1031900087E894E00E940A101F910F91FF90EF9032
:1031A000DF90CF900C94181480916B0490916C0474
:1031B0000097A1F48091490390914A0321E030E007
:1031C000009711F030E020E030934A032093490348
:1031D000892B11F40C9472180C94A318019779F4AC
:1031E000809158049091590421E030E0009711F04B
:1031F00030E020E03093590420935804E9CF08953B
:1032000020918D0430918E04C901079697FD079691
:1032100023E0959587952A95E1F720918B043091CD
:103220008C04829FA001839F500D929F500D11240A
:1032300070E060E08091A6049091A7040C947B2B31
:10324000CF92DF92EF92FF920F931F930E9400198B
:1032500080916D0481110FC0EE24E394F12C00E401
:1032600010E020E830E050E040E070E060E087E807
:1032700094E00E94240FC0906D04D12C80E2E82ECF
:10328000F12C00E210E02EE73CE040E150E062E487
:1032900070E087E894E00E940A10C0906D04D12C81
:1032A00098E0E92EF12C08E010E024EB32E045E054
:1032B00050E06BE270E087E894E00E940A10C09052
:1032C0006D04D12C2CEA32E04CE050E06AE270E070
:1032D00087E894E00E940A10C0906D04D12C24EA83
:1032E00032E043E150E06AE270E087E894E00E9457
:1032F0000A10C0906D04D12C2CE932E04AE150E074
:103300006AE270E087E894E00E940A10C0906D04C1
:10331000D12C24E932E041E250E06AE270E087E833
:1033200094E00E940A10C0906D04D12C2CE832E089
:1033300048E250E06AE270E087E894E00E940A10F8
:10334000C0906D04D12C24E832E04FE250E06AE2F4
:1033500070E087E894E00E940A10C0906D04D12CC0
:103360002CE732E043E150E06EE170E087E894E062
:103370000E940A10C0906D04D12C2CE832E04AE182
:1033800050E06EE170E087E894E00E940A10C0907F
:103390006D04D12C2CE932E041E250E06EE170E0A6
:1033A00087E894E00E940A10C0906D04D12C24E7B5
:1033B00032E048E250E06EE170E087E894E00E947D
:1033C0000A101F910F91FF90EF90DF90CF900C9417
:1033D0001814CF92DF92EF92FF920F931F930E94E7
:1033E000001980916D0481110FC0EE24E394F12C3B
:1033F00000E410E020E830E050E040E070E060E001
:1034000087E894E00E94240FC0906D04D12C80E2E4
:10341000E82EF12C00E210E02EE73CE040E150E025
:1034200062E470E087E894E00E940A10C0906D04A6
:10343000D12C98E0E92EF12C08E010E024EB32E0EA
:1034400045E050E06BE270E087E894E00E940A10EB
:10345000C0906D04D12C2CE632E04CE050E06AE2E2
:1034600070E087E894E00E940A10C0906D04D12CAF
:1034700024E632E043E150E06AE270E087E894E05D
:103480000E940A10C0906D04D12C2CE832E04AE171
:1034900050E06AE270E087E894E00E940A10C09071
:1034A0006D04D12C2CE932E041E250E06AE270E098
:1034B00087E894E00E940A10C0906D04D12C24E6A5
:1034C00032E048E250E06AE270E087E894E00E946F
:1034D0000A10C0906D04D12C2CE532E04FE250E090
:1034E0006AE270E087E894E00E940A10C0906D04E0
:1034F000D12C2CE732E04CE050E06EE170E087E840
:1035000094E00E940A10C0906D04D12C2CE832E0A7
:1035100043E150E06EE170E087E894E00E940A1019
:10352000C0906D04D12C2CE632E04AE150E06EE10F
:1035300070E087E894E00E940A10C0906D04D12CDE
:103540002CE632E041E250E06EE170E087E894E082
:103550000E940A10C0906D04D12C24E832E048E2A9
:1035600050E06EE170E087E894E00E940A10C0909D
:103570006D04D12C24E532E04FE250E06EE170E0C2
:1035800087E894E00E940A101F910F91FF90EF903E
:10359000DF90CF900C9418146F927F928F929F922D
:1035A000AF92BF92CF92DF92EF92FF920F931F9351
:1035B000CF93DF930E94001980916D0481110FC099
:1035C000EE24E394F12C00E410E020E830E050E039
:1035D00040E070E060E087E894E00E94240F9FE400
:1035E000892E93E0992ED0E0C0E03401B12CA12CBB
:1035F000D301ED91FD913D01E830F105F0F4C0906B
:103600006D04D12C88E0E82EF12C08E010E088272A
:10361000E35FF44E8F4F0C942E2A151B3B1B3E1B71
:10362000411B441B471B4A1B4D1B26E33DE0A501E4
:10363000BE0187E894E00E940A10B8E0AB0EB11C0E
:1036400080E4A816B104A1F6A0E18A0E911C289688
:10365000C038D10551F6DF91CF911F910F91FF90A6
:10366000EF90DF90CF90BF90AF909F908F907F9022
:103670006F900C9418142EE23DE0D9CF26E23DE085
:10368000D6CF2EE13DE0D3CF26E13DE0D0CF2EE0F6
:103690003DE0CDCF26E03DE0CACF2EEF3CE0C7CFE6
:1036A0000E94762BCF92DF92EF92FF926B017C010A
:1036B000C114D104E104F10441F00E943528A701AE
:1036C00096010E948D286B017C01C701B601FF9015
:1036D000EF90DF90CF90089585ED8093BC008091AE
:1036E000CF029091D002A091D102B091D202079660
:1036F000A11DB11D23E0B695A795979587952A95AD
:10370000D1F72091BC0024FD03C010921803089546
:103710004091CF025091D0026091D1027091D202BB
:10372000452B462B472B69F30097A105B10541F0C6
:103730002AE22A95F1F700C00197A109B109E1CF6A
:103740008091CE020C9474111F920F920FB60F92BB
:1037500011242F933F938F939F93AF93BF938091A7
:103760006F0490917004A0917104B0917204309133
:103770006E0423E0230F2D3758F50196A11DB11DCE
:1037800020936E0480936F0490937004A09371044F
:10379000B09372048091730490917404A0917504A5
:1037A000B09176040196A11DB11D8093730490938E
:1037B0007404A0937504B0937604BF91AF919F9168
:1037C0008F913F912F910F900FBE0F901F901895E2
:1037D00026E8230F0296A11DB11DD2CF1F920F9292
:1037E0000FB60F9211240BB60F922F933F934F9366
:1037F0005F936F937F938F939F93AF93BF93EF9359
:10380000FF93E0910E02F0910F021995FF91EF9155
:10381000BF91AF919F918F917F916F915F914F91E8
:103820003F912F910F900BBE0F900FBE0F901F90E6
:1038300018951F920F920FB60F9211240BB60F928C
:103840002F933F934F935F936F937F938F939F93A8
:10385000AF93BF93EF93FF93E0910C02F0910D02B1
:103860001995FF91EF91BF91AF919F918F917F91AA
:103870006F915F914F913F912F910F900BBE0F90E1
:103880000FBE0F901F9018951F920F920FB60F92B8
:1038900011240BB60F922F933F934F935F936F9327
:1038A0007F938F939F93AF93BF93EF93FF93E09199
:1038B0000202F09103021995FF91EF91BF91AF9130
:1038C0009F918F917F916F915F914F913F912F9138
:1038D0000F900BBE0F900FBE0F901F9018951F9268
:1038E0000F920FB60F9211240BB60F922F933F93A6
:1038F0004F935F936F937F938F939F93AF93BF93F8
:10390000EF93FF93E0910002F09101021995FF916E
:10391000EF91BF91AF919F918F917F916F915F9147
:103920004F913F912F910F900BBE0F900FBE0F90B4
:103930001F9018951F920F920FB60F9211240BB67D
:103940000F922F933F934F935F936F937F938F9338
:103950009F93AF93BF93EF93FF93E0910A02F0918F
:103960000B021995FF91EF91BF91AF919F918F91AC
:103970007F916F915F914F913F912F910F900BBE6F
:103980000F900FBE0F901F9018951F920F920FB6B9
:103990000F9211240BB60F922F933F934F935F9387
:1039A0006F937F938F939F93AF93BF93EF93FF9307
:1039B000E0910802F09109021995FF91EF91BF91F2
:1039C000AF919F918F917F916F915F914F913F91B7
:1039D0002F910F900BBE0F900FBE0F901F90189558
:1039E0001F920F920FB60F9211240BB60F922F93C6
:1039F0003F934F935F936F937F938F939F93AF9377
:103A0000BF93EF93FF93E0910602F091070219959F
:103A1000FF91EF91BF91AF919F918F917F916F91A6
:103A20005F914F913F912F910F900BBE0F900FBE62
:103A30000F901F9018951F920F920FB60F9211249E
:103A40000BB60F922F933F934F935F936F937F9398
:103A50008F939F93AF93BF93EF93FF93E0910402F3
:103A6000F09105021995FF91EF91BF91AF919F9150
:103A70008F917F916F915F914F913F912F910F9017
:103A80000BBE0F900FBE0F901F9018951F920F92B4
:103A90000FB60F9211240BB60F922F933F934F93B3
:103AA0005F936F937F938F939F93AF93BF93EF93A6
:103AB000FF938091B900887F803609F44DC008F0EB
:103AC00040C0883209F4A9C028F5803109F49DC0AE
:103AD000C8F4882309F4FBC0883009F496C0FF912C
:103AE000EF91BF91AF919F918F917F916F915F9176
:103AF0004F913F912F910F900BBE0F900FBE0F90E3
:103B00001F901895883109F488C0803241F780935E
:103B1000170314C0803409F49DC040F48033B9F316
:103B20008833E9F68093170385ECB0C0803509F43B
:103B300085C0883509F496C0883489F60E946C1BCC
:103B4000CECF883909F48CC038F5883729F050F485
:103B5000883611F0803719F683E0809318031092AD
:103B6000160357C0883809F47BC0803919F08038B3
:103B700009F0B5CF80911603803208F071C0E09152
:103B8000160381E08E0F809316038091BB00F0E056
:103B9000EA50FD4F80833DC0803B39F0E0F4803A2D
:103BA00009F479C0883A09F09ACF84E08093180329
:103BB0001092F5021092F402E0914103F091420359
:103BC00019958091F40281110FC081E08093F40275
:103BD0001092D40209C0803C09F4A6CF883C09F4B5
:103BE000A3CF883B09F07BCFE091F50281E08E0FF7
:103BF0008093F502F0E0EC52FD4F80818093BB0092
:103C00009091F5028091F40229C080913D03809348
:103C1000BB0085EC8093BC0062CF90913C03809107
:103C20003B03981758F5E0913C0381E08E0F809399
:103C30003C03F0E0E55EFC4F8081E9CFE0913C037E
:103C400081E08E0F80933C038091BB00F0E0E55E45
:103C5000FC4F808390913C0380913B039817C8F2FE
:103C600085E8D8CFE0913C0381E08E0F80933C0340
:103C70008091BB00F0E0E55EFC4F808380911A03E9
:103C800081115CCF81E08093190384EA8093BC00AA
:103C90001092180324CF85EC8093BC001092180377
:103CA00080911603803230F4E0911603F0E0EA5080
:103CB000FD4F10826091160370E0E0913F03F09198
:103CC000400386EF92E019951092160308CF1092E8
:103CD000170334CFABE7B4E013961C921E921297F1
:103CE00048EE53E060E070E014964D935D936D9361
:103CF0007C93179784E592E011969C938E93E7E866
:103D0000F4E01382128220E830E03583248380E4DB
:103D100090E0978386833187208793878287168AEE
:103D2000158614861786168681E0858B848B2FEF87
:103D30003FEF338B228B318B208B878B108E128E33
:103D4000118E86E692E091838083148E138EB68F57
:103D5000A58F10A2178E8FEF84A385A386A387A3B8
:103D600080A780E89AE1A6E0B0E085AB96ABA7AB70
:103D7000B0AF80EA96E8A1E0B0E081AF92AFA3AF28
:103D8000B4AF80E586AF17AE0895CF93DF93CDB77C
:103D9000DEB76A970FB6F894DEBF0FBECDBF78943A
:103DA00084B5826084BD84B5816084BD85B5826040
:103DB00085BD85B5816085BD80916E0081608093F1
:103DC0006E0010928100809181008260809381005A
:103DD000809181008160809381008091800081606A
:103DE000809380008091B10084608093B1008091C5
:103DF000B00081608093B0008091910082608093D8
:103E00009100809191008160809391008091900059
:103E10008160809390008091A10082608093A100D6
:103E20008091A10081608093A1008091A0008160B9
:103E30008093A00080912101826080932101809174
:103E40002101816080932101809120018160809314
:103E5000200180917A00846080937A0080917A00BA
:103E6000826080937A0080917A00816080937A00EA
:103E700080917A00806880937A001092C10010923D
:103E80006C0410926B0410924A0310924903109232
:103E900059041092580410926A0410926904109206
:103EA000680481E080936D048091A6049091A7043A
:103EB000892B51F10E94001980918D0490918E04FC
:103EC00060918B0470918C04813291050CF03DC39C
:103ED000AC014052510957FF02C04F5F5F4F5595EB
:103EE00047956357710977FF02C06F5F7F4F7595E4
:103EF0006795CC24C394D12CA0E2EA2EF12C03E7E1
:103F000010E02EED37E03CC320918D0430918E04FB
:103F1000C901079697FD079623E0959587952A9501
:103F2000E1F720918B0430918C048C01029FC00139
:103F3000039F900D129F900D11240E94512A90937F
:103F4000A7048093A604892B09F0B4CF0E9400191E
:103F5000C0906D04D12C90E2E92EF12C00E210E02B
:103F60002EE73CE040E150E060E370E087E894E059
:103F70000E940A100E94181460E971E080E090E04D
:103F80000E9454080E94E9190AE412E024E4A22ED7
:103F900022E0B22E3AE1C32E32E0D32ED8018C912A
:103FA0000E5F1F4F61E00E94E707F5018081F2E09C
:103FB000AF0EB11C61E00E94E707F12CE12CF70184
:103FC000EE0FFF1FEC0DFD1D61E080810E94E707F1
:103FD0002FEFE21AF20A37E0E316F10481F74EE020
:103FE000C40ED11C52E000351507C1F661E08AE02D
:103FF0000E94E70760E082E00E94E70782E796E11F
:10400000909301028093000280916A008C7F82600D
:1040100080936A00EC9A60E083E00E94E70786E8FC
:1040200098E0909303028093020280916A00837F5C
:10403000886080936A00ED9A60E082E10E94E70761
:104040008AE898E090930B0280930A0280916900BD
:104050008F73806880936900EB9A60E083E10E942F
:10406000E7078EE898E09093090280930802809118
:1040700069008F7C806280936900EA9A60E086E341
:104080000E94E70760E087E30E94E707CE01019600
:104090002C0180916D04882309F482C787E30E9474
:1040A0001808C29794F410926D0480916B0490915B
:1040B0006C048130910509F446C48230910509F4FD
:1040C00045C4892B11F40E94E91980916A04882360
:1040D00051F080916B0490916C04029721F0109242
:1040E0006A040E94D41880916904882309F4F3C0FB
:1040F00080916B0490916C048230910509F4EBC0BF
:1041000010926904009709F036C480914903909198
:104110004A03892B09F01DC4A2E0B0E0B0936C04FF
:10412000A0936B041092530408EE13E020E030E0FB
:1041300000935A0410935B0420935C0430935D0455
:104140002FB7F89480916F0490917004A09171043E
:10415000B09172042FBF80935E0490935F04A0938C
:104160006004B09361042FB7F89480916F0490912C
:104170007004A0917104B09172042FBF8093540415
:1041800090935504A0935604B093570410924E0395
:1041900010924D031FE4612E13E0712EF301118282
:1041A000108213821282158214821782168211865F
:1041B00010861386128615861486178616867096C4
:1041C00014E0EF34F10759F727E030E03093500363
:1041D00020934F030E94001980916D0481110FC03C
:1041E000EE24E394F12C00E410E020E830E050E00D
:1041F00040E070E060E087E894E00E94240FB12C7A
:10420000A12C1301912C812CD1018D919D911D0127
:10421000C0906D04D12CA8E0EA2EF12C08E010E04B
:104220002EEF3CE0079711F026E33DE0A401B50135
:1042300087E894E00E940A10B8E08B0E911CE0E43D
:104240008E16910409F7F8E0AF0EB11C00E1600E84
:10425000711C10E8A116B104A1F60E941814109266
:1042600067041092660423E030E030934803209303
:104270004703309346032093450310924C0310925A
:104280004B0361E084E00E945B0761E087E00E94ED
:104290005B0761E085E00E945B0761E088E00E94C7
:1042A0005B0761E086E00E945B0761E089E00E94B5
:1042B0005B0770E060E090E080E00E94A21570E093
:1042C00060E081E090E00E94A21570E060E082E092
:1042D00090E00E94A21580916804882351F080919B
:1042E0006B0490916C04029721F0109268040E9474
:1042F000D41880916B0490916C04029709F02AC63F
:1043000086E30E94180829E030E0DC010E94362A8A
:104310002FEF33E040E050E00E948D2849015A0120
:1043200081E0881A9108A108B10840916604509173
:1043300067044815590509F454C0E0906D0481E004
:10434000E826F12C63E0440F551F6A95E1F708E079
:1043500010E028E030E070E060E087E894E00E9440
:10436000240FC0906D04D12C78E0E72EF12C2EEFB5
:104370003CE0A401E3E0440F551FEA95E1F770E04B
:1043800060E087E894E00E940A100E9418148401FB
:10439000000F111FF801E15BFC4F808191819C01AE
:1043A000215031092330310508F0F3C280915304C4
:1043B000811102C00E944F17E0916604F0916704DA
:1043C000EE0FFF1FE15BFC4F11821082F801E15BF1
:1043D000FC4FA7E0B0E0B183A08390926704809285
:1043E00066042FB7F89480916F0490917004A091A7
:1043F0007104B09172042FBF8093620490936304A0
:10440000A0936404B093650440915E0450915F04EE
:1044100060916004709161048C019D01041B150B77
:10442000260B370B40915A0450915B0460915C0459
:1044300070915D04041715072607370708F425C592
:1044400080935E0490935F04A0936004B093610432
:104450001C8A1B8A1A8E198EE0EFFFEFFE8BED8B04
:1044600001E010E0188F0F8B9B888C882B893C898A
:10447000285F3F4F3C8B2B8B4FE453E08D899E8907
:10448000481B590B5A8B498B312C212CAF89B88D85
:10449000119709F00FC3C101880F991FFC01E15B5F
:1044A000FC4F3F012081318180899189273031057E
:1044B00009F097C28430910509F48DC20CF07BC2DB
:1044C00001970CF081C2BFEF2B1A3B0AE989FA89E8
:1044D0003296FA8BE98BF8E02F163104B9F60F8982
:1044E000188D0F5F1F4F188F0F8B2D893E8920511C
:1044F00031093E8B2D8B498D5A8D405F5F4F5A8F0E
:10450000498F0031110509F0AFCF80E1D2011D9232
:104510008A95E9F769E070E080E090E00E94521B24
:104520008B016930710508F076C3FB018827E456DA
:10453000FD4D8F4F0C942E2AD625D625D62508263C
:10454000082608267F267F26A726AC01405451095D
:1045500057FF02C04F5F5F4F5595479562557109F0
:1045600077FF02C06F5F7F4F75956795CC24C3942A
:10457000D12C80E4E82EF12C02E510E02EEB39E09E
:1045800087E894E00E940A1082E08093A904809159
:10459000A4049091A504892B09F4DFC08CE38093D7
:1045A000A8041092440310924303109278041092CE
:1045B00077040E94561182E998E090934203809319
:1045C000410383E998E09093400380933F038091F7
:1045D000AF0487FD1EC061E00E94E70761E08091A3
:1045E000AF040E945B0761E070E080E090E00E9411
:1045F000540860E08091AF040E945B076AE070E0BD
:1046000080E090E00E94540861E08091AF040E9435
:104610005B078091A4049091A504892B09F45CC1E7
:104620002091BC043091BD044091BE045091BF0460
:1046300060E074E284EF90E00E94BF2820513109CD
:104640004109510956954795379527952093B8000C
:1046500064E08AED97E00E94011360918D0461503F
:1046600087E894E00E94B61364E086ED97E00E942C
:1046700001138091A90460E1813009F064E187E8C9
:1046800094E00E94B61364E082ED97E00E9401136B
:104690008FE88093C40480918B0490918C048038BF
:1046A000910509F032C180918D0490918E0480347F
:1046B000910509F03AC18091A904813009F023C124
:1046C0008FE98093C40412E16AED87E894E00E94C8
:1046D000B613612F87E894E00E94B61361E887E87B
:1046E00094E00E94B6136091C40487E894E00E94AD
:1046F000B61369ED87E894E00E94B6138091A9048F
:1047000062E2813009F061EF87E894E00E94B6131D
:1047100066E08CEC97E00E9401138091A4049091D4
:10472000A504892B09F405C12091C0043091C1046E
:104730004091C2045091C30460E074E284EF90E0C1
:104740000E94BF28205131094109510956954795CA
:10475000379527952093B800F9CB61E08091AD049F
:104760000E94E70761E08091AE040E94E707809114
:10477000AD04082E000C990BFC01EE58F24FE491A9
:10478000F0E0EE0FFF1FE85AF24F2591349130937D
:10479000B5042093B404FC01E854F24FE491E09393
:1047A000BA048091AE04082E000C990BFC01EE585F
:1047B000F24FE491F0E0EE0FFF1FE85AF24FA5919F
:1047C000B491B093B704A093B604FC01E854F24F3F
:1047D000E491E093BB048C91E82BEC938091A204CC
:1047E0009091A304892B09F434C01FB7F8948091E9
:1047F0003E03811127C0E7EAFDE08491EDEEFDE084
:104800009491E82FF0E0EE0FFF1FE25CF24FA591CC
:10481000B491EC91E92321F461E085E30E945B0708
:1048200061E085E30E94E7078CB580618CBD8CB5A3
:1048300080648CBD61E084E30E94E70761E083E36C
:104840000E94E70780913E038F5F80933E031FBF66
:10485000BECE61E08091AB040E94E70761E08091E9
:10486000AC040E94E7078091AB04082E000C990B62
:10487000FC01EE58F24FE491F0E0EE0FFF1FE85A12
:10488000F24F259134913093B1042093B004FC0190
:10489000E854F24FE491E093B8048091AC04082E00
:1048A000000C990BFC01EE58F24FE491F0E0EE0F92
:1048B000FF1FE85AF24FA591B491B093B304A093AF
:1048C000B204FC01E854F24FE491E093B9048C91F6
:1048D000E095E823EC937BCE8091A2049091A30411
:1048E000892B31F08091C5049091C6040E94200B61
:1048F000E091B604F091B70490818091BB0480955B
:1049000089238083A5CE8FECDCCE8036910569F4B7
:1049100080918D0490918E04409739F48091A90480
:10492000813029F480E18093C40412E0CDCE8FEA77
:10493000FACFE091B604F091B70480819091BB0466
:10494000892B808303CB0E942019BFCB0E94CC1AF5
:10495000BCCB41E050E050936C0440936B040E9448
:1049600020198091580490915904892B09F4B3CCF3
:104970000E947218B0CC019709F0ADCC10926C0473
:1049800010926B040E94E9198091490390914A03A7
:10499000ECCF8430910519F40E9458180DCD853064
:1049A000910519F40E94351707CD069709F004CD3B
:1049B0000E945B1601CD8530910581F0069709F0C4
:1049C00082CD0E945B167FCD8091530481117BCDF7
:1049D0000E944F1778CD0E94581875CD0E94351748
:1049E00072CD2817390709F46ECD510103E0AA0CE6
:1049F000BB1C0A95E1F7E0906D04F1E0EF26F12C85
:104A000008E010E028E030E0A50170E060E087E811
:104A100094E00E94240FE0906D0401E0E026F12C68
:104A200008E010E028E030E0A50168E070E087E8E9
:104A300094E00E94240FD3015096ED91FC91E73051
:104A4000F105F0F4C0906D04D12C18E0E12EF12CAA
:104A500008E010E08827E05DFA4D8F4F0C942E2A75
:104A6000372548254B254E2551255425572526E326
:104A70003DE0A50170E060E087E894E00E940A1044
:104A8000F3018089918991838083118A108A1BCDDB
:104A90002EE23DE0EECF26E23DE0EBCF2EE13DE021
:104AA000E8CF26E13DE0E5CF2EE03DE0E2CF26E095
:104AB0003DE0DFCF69887A880D891E89600E711EFE
:104AC000298D3A8D620E731ED3012D913C91E98997
:104AD000FA89808191812817390709F4F4CC5101B2
:104AE000B3E0AA0CBB1CBA95E1F7E0906D04F1E0CD
:104AF000EF26F12C08E010E028E030E0A501692D58
:104B0000782D87E894E00E94240FE0906D0401E086
:104B1000E026F12C08E010E028E030E0A5016B89E8
:104B20007C8987E894E00E94240FA989BA89ED91D5
:104B3000FC91E730F105F0F4C0906D04D12CA8E0B1
:104B4000EA2EF12C08E010E08827E655FA4D8F4F49
:104B50000C942E2AB125C425C725CA25CD25D025DC
:104B6000D32526E33DE0A501692D782D87E894E063
:104B70000E940A10E989FA8980819181D3018D937D
:104B80009C93118210829FCC2EE23DE0ECCF26E276
:104B90003DE0E9CF2EE13DE0E6CF26E13DE0E3CF89
:104BA0002EE03DE0E0CF26E03DE0DDCF01E010E08B
:104BB000912C812C801691060CF06BC062E070E0A5
:104BC00080E090E00E94521B660F771F5B01BFEFF1
:104BD000AB1ABB0A68E070E080E090E00E94521BD4
:104BE000DB01AA0FBB1FA40DB51D4D915C91119760
:104BF000452B81F76115710509F084C08B819C817B
:104C0000892B41F7BA82A982EFEF8E1A9E0AD2CF82
:104C100002E010E0CDCF6430710554F262E070E044
:104C200080E090E00E94521B672B682B692B09F4EF
:104C300091C063E070E080E090E00E94521B6F5FE3
:104C40007F4F8F4F9F4F7A83698363E070E080E0EE
:104C500090E00E94521B6F5F7F4F8F4F9F4F7E836C
:104C60006D8363E070E080E090E00E94521B6F5F14
:104C70007F4F8F4F9F4F7A87698763E070E080E0B6
:104C800090E00E94521B6F5F7F4F8F4F9F4F7E8738
:104C90006D8780914D0390914E03080F191F0730C7
:104CA00011050CF088C010934E0300934D033201A0
:104CB0009FE3892E94E0992EB12CA12CD301ED9184
:104CC000FD913D01D401ED93FD934D01E730F105D8
:104CD00008F099C0C0906D04D12C88E0E82EF12C2A
:104CE00008E010E08827E858F94D8F4F0C942E2AE1
:104CF000FA26BE27C127C427C727CA27CD2703E026
:104D000010E056CF6730710541F48D859E85892B63
:104D100009F060CFB88AAF8677CFFB013196EE0FEE
:104D2000FF1FE40DF51D20813181232B09F052CFA7
:104D300061507109660F771FF201E60FF71F80813E
:104D40009181892B09F046CFAD92BC925DCF04E0F2
:104D500010E064CF63E070E080E090E00E94521BBE
:104D60006F5F7F4F8F4F9F4F7C836B8363E070E05B
:104D700080E090E00E94521B6F5F7F4F8F4F9F4FEC
:104D800078876F8363E070E080E090E00E94521BC0
:104D90006F5F7F4F8F4F9F4F7C876B8763E070E023
:104DA00080E090E00E94521B6F5F7F4F8F4F9F4FBC
:104DB000788B6F876ECF10924E0310924D0364E094
:104DC00070E080E090E00E94521B8B010C5F1F4F4F
:104DD00068E070E080E090E00E94521B660F771F51
:104DE000F201E60FF71F80819181892B89F71183EA
:104DF00000835DCF26E33DE0A50168E770E087E82A
:104E000094E00E940A10B8E0AB0EB11CE0E4AE16CC
:104E1000B10409F053CF0E94181400914B03109174
:104E20004C030F5F1F4F10934C0300934B03083E3E
:104E3000F3E01F0754F5C8016AE070E00E941A2AE7
:104E40004B015C01BC0182E090E00E94A215AB28FE
:104E5000E1F4C4016AE070E00E941A2A7C01BC01FE
:104E600081E090E00E94A215EF2879F4C80164E681
:104E700070E00E941A2ACB016AE070E00E941A2AB0
:104E8000BC0190E080E00E94A215809158049091AE
:104E90005904892B09F43FC0809162049091630406
:104EA000A0916404B091650440915404509155045C
:104EB00060915604709157048C019D01041B150BE1
:104EC000260B370BB901A801403157426105710526
:104ED00010F18093540490935504A0935604B0931A
:104EE000570460915A0470915B0480915C04909126
:104EF0005D040E941F292DEC3CEC4CE45FE30E9412
:104F000085290E94F02860935A0470935B04809373
:104F10005C0490935D04809153048823D9F08091C0
:104F2000620490916304A0916404B091650440917F
:104F30004F04509150046091510470915204841BAD
:104F4000950BA60BB70B883B9B40A105B10510F054
:104F50001092530480916B0490916C04049731F487
:104F600010926C0410926B040E94E91940E050E02A
:104F7000452B09F48EC80E9400008BC82EE23DE04C
:104F80003BCF26E23DE038CF2EE13DE035CF26E1B4
:104F90003DE032CF2EE03DE02FCF26E03DE02CCFAC
:104FA00087E30E941808C2970CF48FC881E08093B1
:104FB0006D047BC886E692E0909388048093870412
:104FC0008091A6049091A704009711F00C94ED2A0B
:104FD00008958F929F92AF92BF92CF92DF92EF92FD
:104FE000FF92CF93DF93EC01688179818A819B8165
:104FF000611571058105910521F464E279ED8BE578
:1050000097E02DE133EF41E050E00E948D28490107
:105010005A019B01AC01A7EAB1E40E94AC286B01E4
:105020007C01ACEEB4EFA50194010E94BA28C60E33
:10503000D71EE81EF91EF7FE06C081E0C81AD10887
:10504000E10880E8F80AC882D982EA82FB82C701B7
:10505000B6019F77DF91CF91FF90EF90DF90CF90D7
:10506000BF90AF909F908F9008958F929F92AF9234
:10507000BF92CF92DF92EF92FF92609110027091F7
:105080001102809112029091130261157105810540
:10509000910521F464E279ED8BE597E02DE133EFA2
:1050A00041E050E00E948D2849015A019B01AC016A
:1050B000A7EAB1E40E94AC286B017C01ACEEB4EF2E
:1050C000A50194010E94BA28C60ED71EE81EF91E3B
:1050D000F7FE06C081E0C81AD108E10880E8F80AA6
:1050E000C0921002D0921102E0921202F0921302CA
:1050F000C701B6019F77FF90EF90DF90CF90BF90F0
:10510000AF909F908F90089560931002709311025A
:1051100080931202909313020895052E97FB1EF4BC
:1051200000940E94A42857FD07D00E94BF2807FCC6
:1051300003D04EF40C94A4285095409530952195B9
:105140003F4F4F4F5F4F08959095809570956195B3
:105150007F4F8F4F9F4F08950E94E128A59F900D8C
:10516000B49F900DA49F800D911D11240895B7FF49
:105170000C94AC280E94AC28821B930B0895A1E2EA
:105180001A2EAA1BBB1BFD010DC0AA1FBB1FEE1FC1
:10519000FF1FA217B307E407F50720F0A21BB30B0C
:1051A000E40BF50B661F771F881F991F1A9469F788
:1051B00060957095809590959B01AC01BD01CF01E4
:1051C0000895A29FB001B39FC001A39F700D811DE0
:1051D0001124911DB29F700D811D1124911D089500
:1051E0000E94642988F09F5798F0B92F9927B751EA
:1051F000B0F0E1F0660F771F881F991F1AF0BA957B
:10520000C9F714C0B13091F00E947E29B1E0089531
:105210000C947E29672F782F8827B85F39F0B93F23
:10522000CCF3869577956795B395D9F73EF490952D
:105230008095709561957F4F8F4F9F4F0895E894AB
:1052400009C097FB3EF490958095709561957F4FCE
:105250008F4F9F4F9923A9F0F92F96E9BB2793957C
:10526000F695879577956795B795F111F8CFFAF48C
:10527000BB0F11F460FF1BC06F5F7F4F8F4F9F4FBD
:1052800016C0882311F096E911C0772321F09EE81B
:10529000872F762F05C0662371F096E8862F70E081
:1052A00060E02AF09A95660F771F881FDAF7880F5B
:1052B0009695879597F9089557FD9058440F551F77
:1052C00059F05F3F71F04795880F97FB991F61F088
:1052D0009F3F79F087950895121613061406551FFF
:1052E000F2CF4695F1DF08C0161617061806991F6B
:1052F000F1CF86957105610508940895E894BB2760
:1053000066277727CB0197F908950E9498290C9476
:10531000092A0E94FB2938F00E94022A20F09523D6
:1053200011F00C94F2290C94F82911240C947F2983
:105330000E945C2970F3959FC1F3950F50E0551FB3
:10534000629FF001729FBB27F00DB11D639FAA27DA
:10535000F00DB11DAA1F649F6627B00DA11D661F29
:10536000829F2227B00DA11D621F739FB00DA11D4A
:10537000621F839FA00D611D221F749F3327A00D04
:10538000611D231F849F600D211D822F762F6A2FA0
:1053900011249F5750409AF0F1F088234AF0EE0F05
:1053A000FF1FBB1F661F771F881F91505040A9F732
:1053B0009E3F510580F00C94F2290C947F295F3FA9
:1053C000E4F3983ED4F3869577956795B795F7956E
:1053D000E7959F5FC1F7FE2B880F911D96958795E6
:1053E00097F9089597F99F6780E870E060E0089565
:1053F0009FEF80EC089500240A94161617061806ED
:105400000906089500240A941216130614060506C8
:105410000895092E0394000C11F4882352F0BB0F59
:1054200040F4BF2B11F460FF04C06F5F7F4F8F4FBC
:105430009F4F089597FB072E16F4009407D077FD31
:1054400009D00E943D2A07FC05D03EF49095819535
:105450009F4F0895709561957F4F0895EE0FFF1F40
:10546000881F8BBF0790F691E02D19940E94E128C8
:10547000B7FF0895821B930B0895AA1BBB1B51E134
:1054800007C0AA1FBB1FA617B70710F0A61BB70BB4
:10549000881F991F5A95A9F780959095BC01CD0159
:1054A00008950F931F93CF93DF938230910510F4EB
:1054B00082E090E0E091C904F091CA0430E020E07D
:1054C000B0E0A0E0309799F42115310509F44AC005
:1054D000281B390B24303105D8F58A819B81611551
:1054E000710589F1FB0193838283FE0111C0408124
:1054F00051810281138148175907E0F04817590775
:1055000099F4109761F012960C93129713961C93CE
:105510003296CF01DF91CF911F910F9108950093A3
:10552000C9041093CA04F4CF2115310551F0421774
:10553000530738F0A901DB019A01BD01DF01F80131
:10554000C1CFEF01F9CF9093CA048093C904CDCFA6
:10555000FE01E20FF31F81939193225031093983A9
:105560002883D7CF2091C7043091C804232B41F45E
:1055700020911602309117023093C8042093C7047B
:1055800020911402309115022115310541F42DB7F7
:105590003EB74091180250911902241B350BE0913F
:1055A000C704F091C804E217F307A0F42E1B3F0BC9
:1055B0002817390778F0AC014E5F5F4F2417350785
:1055C00048F04E0F5F1F5093C8044093C704819367
:1055D00091939FCFF0E0E0E09CCFCF93DF930097D3
:1055E000E9F0FC01329713821282A091C904B091B4
:1055F000CA04ED0130E020E01097A1F42081318150
:10560000820F931F2091C7043091C80428173907CF
:1056100009F061C0F093C804E093C704DF91CF9113
:105620000895EA01CE17DF07E8F54A815B819E0104
:1056300041155105B1F7E901FB83EA83499159917D
:10564000C40FD51FEC17FD0761F48081918102968C
:10565000840F951FE90199838883828193819B83BD
:105660008A83F0E0E0E012968D919C911397009769
:10567000B9F52D913C911197CD010296820F931FA0
:105680002091C7043091C8042817390739F630979C
:1056900051F51092CA041092C904B093C804A093A3
:1056A000C704BCCFD383C28340815181840F951F2F
:1056B000C817D90761F44E5F5F4F88819981480F01
:1056C000591F518340838A819B8193838283211553
:1056D000310509F0B0CFF093CA04E093C9049ECF1E
:1056E000FD01DC01C0CF13821282D7CF81E090E0B0
:1056F000F8940C94822BDC0101C06D934150504012
:10570000E0F7089517E0C6E2D7E000E006C0802F7A
:10571000FE010E942E2A2196011DC732D10780E08A
:105720000807A9F7F894FFCF940894089408940800
:105730009408940894089408010000000000CB0429
:105740008000160018001A001C001E002000220015
:105750002400260028002A002C002E0030003200F1
:1057600034000B00110010000F000E0007000800AD
:10577000090004000500060000000000EB11BE1146
:105780009F155A07B711A4119511000000005E0D76
:1057900095089F152E11690A5A070310DB0FF70FA2
:1057A000EB0F82105A07240B4915D909220A240F3E
:0657B000070F8F0E300E02
:020000040003F7
:10E000000D9489F10D94B2F10D94B2F10D94B2F129
:10E010000D94B2F10D94B2F10D94B2F10D94B2F1F0
:10E020000D94B2F10D94B2F10D94B2F10D94B2F1E0
:10E030000D94B2F10D94B2F10D94B2F10D94B2F1D0
:10E040000D94B2F10D94B2F10D94B2F10D94B2F1C0
:10E050000D94B2F10D94B2F10D94B2F10D94B2F1B0
:10E060000D94B2F10D94B2F10D94B2F10D94B2F1A0
:10E070000D94B2F10D94B2F10D94B2F10D94B2F190
:10E080000D94B2F10D94B2F10D94B2F10D94B2F180
:10E090000D94B2F10D94B2F10D94B2F10D94B2F170
:10E0A0000D94B2F10D94B2F10D94B2F10D94B2F160
:10E0B0000D94B2F10D94B2F10D94B2F10D94B2F150
:10E0C0000D94B2F10D94B2F10D94B2F10D94B2F140
:10E0D0000D94B2F10D94B2F10D94B2F10D94B2F130
:10E0E0000D94B2F141546D656761323536300041AF
:10E0F000726475696E6F206578706C6F72657220DE
:10E1000073746B3530305632206279204D4C530099
:10E11000426F6F746C6F616465723E004875683F52
:10E1200000436F6D70696C6564206F6E203D200048
:10E130004350552054797065202020203D20005FF9
:10E140005F4156525F415243485F5F3D2000415658
:10E1500052204C696243205665723D20004743437C
:10E160002056657273696F6E203D20004350552024
:10E1700049442020202020203D20004C6F7720663D
:10E18000757365202020203D20004869676820665F
:10E190007573652020203D200045787420667573D6
:10E1A00065202020203D20004C6F636B2066757336
:10E1B000652020203D20004D617220203720323024
:10E1C000313300312E362E3800342E332E350056A2
:10E1D00023202020414444522020206F7020636F70
:10E1E00064652020202020696E73747275637469E1
:10E1F0006F6E2061646472202020496E74657272B3
:10E20000757074006E6F20766563746F7200726A49
:10E210006D702020006A6D70200057686174207056
:10E220006F72743A00506F7274206E6F7420737541
:10E2300070706F72746564004D7573742062652030
:10E2400061206C6574746572002000577269747483
:10E25000696E672045450052656164696E672045B7
:10E26000450045452065727220636E743D00504F35
:10E27000525400303D5A65726F2061646472003FF1
:10E280003D43505520737461747300403D454550C3
:10E29000524F4D207465737400423D426C696E6B41
:10E2A000204C454400453D44756D70204545505215
:10E2B0004F4D00463D44756D7020464C415348001B
:10E2C000483D48656C70004C3D4C69737420492F83
:10E2D0004F20506F72747300513D51756974005234
:10E2E0003D44756D702052414D00563D73686F7707
:10E2F00020696E7465727275707420566563746FF0
:10E30000727300593D506F727420626C696E6B00BD
:10E310002A0011241FBECFEFD1E2DEBFCDBF01E046
